{
  "contractName": "CharityPool",
  "abi": [
    {
      "inputs": [],
      "payable": false,
      "stateMutability": "nonpayable",
      "type": "constructor"
    },
    {
      "anonymous": false,
      "inputs": [
        {
          "indexed": false,
          "internalType": "string",
          "name": "",
          "type": "string"
        },
        {
          "indexed": false,
          "internalType": "uint256",
          "name": "",
          "type": "uint256"
        }
      ],
      "name": "MyLog",
      "type": "event"
    },
    {
      "anonymous": false,
      "inputs": [
        {
          "indexed": false,
          "internalType": "uint256",
          "name": "id",
          "type": "uint256"
        },
        {
          "indexed": false,
          "internalType": "uint256",
          "name": "voteAmount",
          "type": "uint256"
        }
      ],
      "name": "addedVotes",
      "type": "event"
    },
    {
      "anonymous": false,
      "inputs": [
        {
          "indexed": false,
          "internalType": "uint256",
          "name": "depositAmount",
          "type": "uint256"
        }
      ],
      "name": "deposited",
      "type": "event"
    },
    {
      "anonymous": false,
      "inputs": [
        {
          "indexed": false,
          "internalType": "uint256",
          "name": "id",
          "type": "uint256"
        },
        {
          "indexed": false,
          "internalType": "uint256",
          "name": "voteAmount",
          "type": "uint256"
        }
      ],
      "name": "removedVotes",
      "type": "event"
    },
    {
      "anonymous": false,
      "inputs": [
        {
          "indexed": false,
          "internalType": "uint256",
          "name": "withdrawAmount",
          "type": "uint256"
        }
      ],
      "name": "withdrawed",
      "type": "event"
    },
    {
      "anonymous": false,
      "inputs": [
        {
          "indexed": false,
          "internalType": "uint256",
          "name": "timestamp",
          "type": "uint256"
        },
        {
          "indexed": false,
          "internalType": "uint256",
          "name": "id",
          "type": "uint256"
        },
        {
          "indexed": false,
          "internalType": "string",
          "name": "name",
          "type": "string"
        },
        {
          "indexed": false,
          "internalType": "uint256",
          "name": "prize",
          "type": "uint256"
        },
        {
          "indexed": false,
          "internalType": "uint256",
          "name": "votes",
          "type": "uint256"
        }
      ],
      "name": "wonPrize",
      "type": "event"
    },
    {
      "payable": true,
      "stateMutability": "payable",
      "type": "fallback"
    },
    {
      "constant": true,
      "inputs": [],
      "name": "admin",
      "outputs": [
        {
          "internalType": "address",
          "name": "",
          "type": "address"
        }
      ],
      "payable": false,
      "stateMutability": "view",
      "type": "function"
    },
    {
      "constant": true,
      "inputs": [
        {
          "internalType": "uint256",
          "name": "",
          "type": "uint256"
        }
      ],
      "name": "charities",
      "outputs": [
        {
          "internalType": "uint256",
          "name": "id",
          "type": "uint256"
        },
        {
          "internalType": "string",
          "name": "name",
          "type": "string"
        },
        {
          "internalType": "address payable",
          "name": "targetAddress",
          "type": "address"
        },
        {
          "internalType": "uint256",
          "name": "votes",
          "type": "uint256"
        }
      ],
      "payable": false,
      "stateMutability": "view",
      "type": "function"
    },
    {
      "constant": true,
      "inputs": [
        {
          "internalType": "address",
          "name": "",
          "type": "address"
        }
      ],
      "name": "deposits",
      "outputs": [
        {
          "internalType": "uint256",
          "name": "",
          "type": "uint256"
        }
      ],
      "payable": false,
      "stateMutability": "view",
      "type": "function"
    },
    {
      "constant": true,
      "inputs": [],
      "name": "ethDeposited",
      "outputs": [
        {
          "internalType": "uint256",
          "name": "",
          "type": "uint256"
        }
      ],
      "payable": false,
      "stateMutability": "view",
      "type": "function"
    },
    {
      "constant": true,
      "inputs": [],
      "name": "nextId",
      "outputs": [
        {
          "internalType": "uint256",
          "name": "",
          "type": "uint256"
        }
      ],
      "payable": false,
      "stateMutability": "view",
      "type": "function"
    },
    {
      "constant": false,
      "inputs": [
        {
          "internalType": "uint256",
          "name": "amount",
          "type": "uint256"
        },
        {
          "internalType": "bool",
          "name": "redeemType",
          "type": "bool"
        },
        {
          "internalType": "address",
          "name": "_cETHContract",
          "type": "address"
        }
      ],
      "name": "redeemcETHTokens",
      "outputs": [
        {
          "internalType": "bool",
          "name": "",
          "type": "bool"
        }
      ],
      "payable": false,
      "stateMutability": "nonpayable",
      "type": "function"
    },
    {
      "constant": false,
      "inputs": [
        {
          "internalType": "address payable",
          "name": "_cEtherContract",
          "type": "address"
        }
      ],
      "name": "supplyEthToCompound",
      "outputs": [
        {
          "internalType": "bool",
          "name": "",
          "type": "bool"
        }
      ],
      "payable": true,
      "stateMutability": "payable",
      "type": "function"
    },
    {
      "constant": true,
      "inputs": [
        {
          "internalType": "address",
          "name": "",
          "type": "address"
        },
        {
          "internalType": "uint256",
          "name": "",
          "type": "uint256"
        }
      ],
      "name": "votes",
      "outputs": [
        {
          "internalType": "uint256",
          "name": "",
          "type": "uint256"
        }
      ],
      "payable": false,
      "stateMutability": "view",
      "type": "function"
    },
    {
      "constant": true,
      "inputs": [
        {
          "internalType": "address",
          "name": "",
          "type": "address"
        }
      ],
      "name": "votingPower",
      "outputs": [
        {
          "internalType": "uint256",
          "name": "",
          "type": "uint256"
        }
      ],
      "payable": false,
      "stateMutability": "view",
      "type": "function"
    },
    {
      "constant": false,
      "inputs": [
        {
          "internalType": "uint256",
          "name": "amount",
          "type": "uint256"
        }
      ],
      "name": "withdrawETH",
      "outputs": [],
      "payable": false,
      "stateMutability": "nonpayable",
      "type": "function"
    },
    {
      "constant": false,
      "inputs": [
        {
          "internalType": "address payable",
          "name": "_compoundAddress",
          "type": "address"
        }
      ],
      "name": "deposit",
      "outputs": [],
      "payable": true,
      "stateMutability": "payable",
      "type": "function"
    },
    {
      "constant": false,
      "inputs": [
        {
          "internalType": "uint256",
          "name": "_amount",
          "type": "uint256"
        },
        {
          "internalType": "address",
          "name": "_compoundAddress",
          "type": "address"
        }
      ],
      "name": "withdraw",
      "outputs": [],
      "payable": false,
      "stateMutability": "nonpayable",
      "type": "function"
    },
    {
      "constant": false,
      "inputs": [
        {
          "internalType": "address",
          "name": "_compoundAddress",
          "type": "address"
        }
      ],
      "name": "releasePrizeTarget",
      "outputs": [],
      "payable": false,
      "stateMutability": "nonpayable",
      "type": "function"
    },
    {
      "constant": false,
      "inputs": [
        {
          "internalType": "string",
          "name": "_name",
          "type": "string"
        },
        {
          "internalType": "address payable",
          "name": "_targetAddress",
          "type": "address"
        }
      ],
      "name": "createCharity",
      "outputs": [],
      "payable": false,
      "stateMutability": "nonpayable",
      "type": "function"
    },
    {
      "constant": false,
      "inputs": [
        {
          "internalType": "uint256",
          "name": "_id",
          "type": "uint256"
        },
        {
          "internalType": "uint256",
          "name": "_voteAmount",
          "type": "uint256"
        }
      ],
      "name": "addVotes",
      "outputs": [],
      "payable": false,
      "stateMutability": "nonpayable",
      "type": "function"
    },
    {
      "constant": false,
      "inputs": [
        {
          "internalType": "uint256",
          "name": "_id",
          "type": "uint256"
        },
        {
          "internalType": "uint256",
          "name": "_voteAmount",
          "type": "uint256"
        }
      ],
      "name": "removeVotes",
      "outputs": [],
      "payable": false,
      "stateMutability": "nonpayable",
      "type": "function"
    }
  ],
  "bytecode": "0x60806040526000600155600060025534801561001a57600080fd5b50336000806101000a81548173ffffffffffffffffffffffffffffffffffffffff021916908373ffffffffffffffffffffffffffffffffffffffff16021790555033600360006101000a81548173ffffffffffffffffffffffffffffffffffffffff021916908373ffffffffffffffffffffffffffffffffffffffff1602179055506000600460003373ffffffffffffffffffffffffffffffffffffffff1673ffffffffffffffffffffffffffffffffffffffff16815260200190815260200160002081905550611f6d806100f06000396000f3fe6080604052600436106100f15760003560e01c80639f2524ee1161008a578063f340fa0111610059578063f340fa0114610551578063f851a44014610595578063fb709d2e146105ec578063fc7e286d146106e1576100f1565b80639f2524ee146103e6578063a82ffd8814610455578063c07473f6146104b1578063f14210a614610516576100f1565b806361b8ce8c116100c657806361b8ce8c1461020f578063677c0f121461023a5780637797933f146102b9578063864ee384146102fe576100f1565b806263246a146100f3578062f714ce14610144578063428786cc1461019f57806355a08b20146101e4575b005b3480156100ff57600080fd5b506101426004803603602081101561011657600080fd5b81019080803573ffffffffffffffffffffffffffffffffffffffff169060200190929190505050610746565b005b34801561015057600080fd5b5061019d6004803603604081101561016757600080fd5b8101908080359060200190929190803573ffffffffffffffffffffffffffffffffffffffff169060200190929190505050610c04565b005b3480156101ab57600080fd5b506101e2600480360360408110156101c257600080fd5b810190808035906020019092919080359060200190929190505050610e8a565b005b3480156101f057600080fd5b506101f961115b565b6040518082815260200191505060405180910390f35b34801561021b57600080fd5b50610224611161565b6040518082815260200191505060405180910390f35b34801561024657600080fd5b5061029f6004803603606081101561025d57600080fd5b8101908080359060200190929190803515159060200190929190803573ffffffffffffffffffffffffffffffffffffffff169060200190929190505050611167565b604051808215151515815260200191505060405180910390f35b3480156102c557600080fd5b506102fc600480360360408110156102dc57600080fd5b810190808035906020019092919080359060200190929190505050611302565b005b34801561030a57600080fd5b506103e46004803603604081101561032157600080fd5b810190808035906020019064010000000081111561033e57600080fd5b82018360208201111561035057600080fd5b8035906020019184600183028401116401000000008311171561037257600080fd5b91908080601f016020809104026020016040519081016040528093929190818152602001838380828437600081840152601f19601f820116905080830192505050505050509192919290803573ffffffffffffffffffffffffffffffffffffffff169060200190929190505050611547565b005b3480156103f257600080fd5b5061043f6004803603604081101561040957600080fd5b81019080803573ffffffffffffffffffffffffffffffffffffffff16906020019092919080359060200190929190505050611701565b6040518082815260200191505060405180910390f35b6104976004803603602081101561046b57600080fd5b81019080803573ffffffffffffffffffffffffffffffffffffffff169060200190929190505050611726565b604051808215151515815260200191505060405180910390f35b3480156104bd57600080fd5b50610500600480360360208110156104d457600080fd5b81019080803573ffffffffffffffffffffffffffffffffffffffff169060200190929190505050611971565b6040518082815260200191505060405180910390f35b34801561052257600080fd5b5061054f6004803603602081101561053957600080fd5b8101908080359060200190929190505050611989565b005b6105936004803603602081101561056757600080fd5b81019080803573ffffffffffffffffffffffffffffffffffffffff169060200190929190505050611a95565b005b3480156105a157600080fd5b506105aa611b83565b604051808273ffffffffffffffffffffffffffffffffffffffff1673ffffffffffffffffffffffffffffffffffffffff16815260200191505060405180910390f35b3480156105f857600080fd5b506106256004803603602081101561060f57600080fd5b8101908080359060200190929190505050611ba9565b60405180858152602001806020018473ffffffffffffffffffffffffffffffffffffffff1673ffffffffffffffffffffffffffffffffffffffff168152602001838152602001828103825285818151815260200191508051906020019080838360005b838110156106a3578082015181840152602081019050610688565b50505050905090810190601f1680156106d05780820380516001836020036101000a031916815260200191505b509550505050505060405180910390f35b3480156106ed57600080fd5b506107306004803603602081101561070457600080fd5b81019080803573ffffffffffffffffffffffffffffffffffffffff169060200190929190505050611c9e565b6040518082815260200191505060405180910390f35b6000809054906101000a900473ffffffffffffffffffffffffffffffffffffffff1673ffffffffffffffffffffffffffffffffffffffff163373ffffffffffffffffffffffffffffffffffffffff1614610808576040517f08c379a000000000000000000000000000000000000000000000000000000000815260040180806020018281038252600e8152602001807f4d7573742062652061646d696e2100000000000000000000000000000000000081525060200191505060405180910390fd5b610810611d8e565b600760008154811061081e57fe5b906000526020600020906004020160405180608001604052908160008201548152602001600182018054600181600116156101000203166002900480601f0160208091040260200160405190810160405280929190818152602001828054600181600116156101000203166002900480156108da5780601f106108af576101008083540402835291602001916108da565b820191906000526020600020905b8154815290600101906020018083116108bd57829003601f168201915b505050505081526020016002820160009054906101000a900473ffffffffffffffffffffffffffffffffffffffff1673ffffffffffffffffffffffffffffffffffffffff1673ffffffffffffffffffffffffffffffffffffffff1681526020016003820154815250509050600060078054905090506000600190505b81811015610aca5782606001516007828154811061097057fe5b9060005260206000209060040201600301541115610abd576007818154811061099557fe5b906000526020600020906004020160405180608001604052908160008201548152602001600182018054600181600116156101000203166002900480601f016020809104026020016040519081016040528092919081815260200182805460018160011615610100020316600290048015610a515780601f10610a2657610100808354040283529160200191610a51565b820191906000526020600020905b815481529060010190602001808311610a3457829003601f168201915b505050505081526020016002820160009054906101000a900473ffffffffffffffffffffffffffffffffffffffff1673ffffffffffffffffffffffffffffffffffffffff1673ffffffffffffffffffffffffffffffffffffffff16815260200160038201548152505092505b8080600101915050610956565b506000826040015190506000610adf85611cb6565b9050610aed81600087611167565b508173ffffffffffffffffffffffffffffffffffffffff166108fc829081150290604051600060405180830381858888f19350505050158015610b34573d6000803e3d6000fd5b507fd2917a6cef153d9169ba9437c5498c4a9655f2290fcb16838d9a636fbc49729142856000015186602001518488606001516040518086815260200185815260200180602001848152602001838152602001828103825285818151815260200191508051906020019080838360005b83811015610bbf578082015181840152602081019050610ba4565b50505050905090810190601f168015610bec5780820380516001836020036101000a031916815260200191505b50965050505050505060405180910390a15050505050565b81600460003373ffffffffffffffffffffffffffffffffffffffff1673ffffffffffffffffffffffffffffffffffffffff168152602001908152602001600020541015610cb9576040517f08c379a00000000000000000000000000000000000000000000000000000000081526004018080602001828103825260158152602001807f6e6f7420656e6f756768206465706f736974656421000000000000000000000081525060200191505060405180910390fd5b81600660003373ffffffffffffffffffffffffffffffffffffffff1673ffffffffffffffffffffffffffffffffffffffff168152602001908152602001600020541015610d51576040517f08c379a0000000000000000000000000000000000000000000000000000000008152600401808060200182810382526030815260200180611f096030913960400191505060405180910390fd5b610d5d82600083611167565b503373ffffffffffffffffffffffffffffffffffffffff166108fc839081150290604051600060405180830381858888f19350505050158015610da4573d6000803e3d6000fd5b5081600460003373ffffffffffffffffffffffffffffffffffffffff1673ffffffffffffffffffffffffffffffffffffffff168152602001908152602001600020600082825403925050819055508160016000828254039250508190555081600660003373ffffffffffffffffffffffffffffffffffffffff1673ffffffffffffffffffffffffffffffffffffffff168152602001908152602001600020600082825403925050819055507ff3aa1193b6da5e1821bfbe001615a1be02c7c5f3c5c4a8e8c5a9b9ed32cc04a2826040518082815260200191505060405180910390a15050565b80600460003373ffffffffffffffffffffffffffffffffffffffff1673ffffffffffffffffffffffffffffffffffffffff168152602001908152602001600020541015610f22576040517f08c379a0000000000000000000000000000000000000000000000000000000008152600401808060200182810382526025815260200180611eb96025913960400191505060405180910390fd5b80600560003373ffffffffffffffffffffffffffffffffffffffff1673ffffffffffffffffffffffffffffffffffffffff1681526020019081526020016000206000848152602001908152602001600020541015610fcb576040517f08c379a000000000000000000000000000000000000000000000000000000000815260040180806020018281038252602b815260200180611ede602b913960400191505060405180910390fd5b60008111611041576040517f08c379a00000000000000000000000000000000000000000000000000000000081526004018080602001828103825260158152602001807f63616e6e6f7420766f7465206e6567617469766521000000000000000000000081525060200191505060405180910390fd5b80600560003373ffffffffffffffffffffffffffffffffffffffff1673ffffffffffffffffffffffffffffffffffffffff16815260200190815260200160002060008481526020019081526020016000206000828254039250508190555080600660003373ffffffffffffffffffffffffffffffffffffffff1673ffffffffffffffffffffffffffffffffffffffff1681526020019081526020016000206000828254019250508190555080600783815481106110fa57fe5b9060005260206000209060040201600301600082825403925050819055507ffe8282880d00e05f7016ae079f59d9ef4d2cb25e8b788d57ebbfd95d003f823d8282604051808381526020018281526020019250505060405180910390a15050565b60015481565b60025481565b6000808290506000600115158515151415611211578173ffffffffffffffffffffffffffffffffffffffff1663db006a75876040518263ffffffff1660e01b815260040180828152602001915050602060405180830381600087803b1580156111cf57600080fd5b505af11580156111e3573d6000803e3d6000fd5b505050506040513d60208110156111f957600080fd5b810190808051906020019092919050505090506112a2565b8173ffffffffffffffffffffffffffffffffffffffff1663852a12e3876040518263ffffffff1660e01b815260040180828152602001915050602060405180830381600087803b15801561126457600080fd5b505af1158015611278573d6000803e3d6000fd5b505050506040513d602081101561128e57600080fd5b810190808051906020019092919050505090505b7f8d1cced004452bd270777a8c670f9f7e7c4fdde56f2db331fe289d39dc2624ad81604051808060200183815260200182810382526024815260200180611e72602491396040019250505060405180910390a16001925050509392505050565b80600660003373ffffffffffffffffffffffffffffffffffffffff1673ffffffffffffffffffffffffffffffffffffffff1681526020019081526020016000205410156113b7576040517f08c379a000000000000000000000000000000000000000000000000000000000815260040180806020018281038252601e8152602001807f6d757374206861766520656e6f75676820766f74696e6720706f77657221000081525060200191505060405180910390fd5b6000811161142d576040517f08c379a00000000000000000000000000000000000000000000000000000000081526004018080602001828103825260158152602001807f63616e6e6f7420766f7465206e6567617469766521000000000000000000000081525060200191505060405180910390fd5b80600560003373ffffffffffffffffffffffffffffffffffffffff1673ffffffffffffffffffffffffffffffffffffffff16815260200190815260200160002060008481526020019081526020016000206000828254019250508190555080600660003373ffffffffffffffffffffffffffffffffffffffff1673ffffffffffffffffffffffffffffffffffffffff1681526020019081526020016000206000828254039250508190555080600783815481106114e657fe5b9060005260206000209060040201600301600082825401925050819055507f7c9abe1548fa5e7bb1c6b9d22a2e925bf5473a6698a41fc369c67032db9de74b8282604051808381526020018281526020019250505060405180910390a15050565b6000809054906101000a900473ffffffffffffffffffffffffffffffffffffffff1673ffffffffffffffffffffffffffffffffffffffff163373ffffffffffffffffffffffffffffffffffffffff1614611609576040517f08c379a000000000000000000000000000000000000000000000000000000000815260040180806020018281038252600e8152602001807f4d7573742062652061646d696e2100000000000000000000000000000000000081525060200191505060405180910390fd5b6007604051806080016040528060025481526020018481526020018373ffffffffffffffffffffffffffffffffffffffff168152602001600081525090806001815401808255809150509060018203906000526020600020906004020160009091929091909150600082015181600001556020820151816001019080519060200190611696929190611dcc565b5060408201518160020160006101000a81548173ffffffffffffffffffffffffffffffffffffffff021916908373ffffffffffffffffffffffffffffffffffffffff160217905550606082015181600301555050506002600081548092919060010191905055505050565b6005602052816000526040600020602052806000526040600020600091509150505481565b60008082905060008173ffffffffffffffffffffffffffffffffffffffff1663bd6d894d6040518163ffffffff1660e01b8152600401602060405180830381600087803b15801561177657600080fd5b505af115801561178a573d6000803e3d6000fd5b505050506040513d60208110156117a057600080fd5b810190808051906020019092919050505090507f8d1cced004452bd270777a8c670f9f7e7c4fdde56f2db331fe289d39dc2624ad81604051808060200183815260200182810382526023815260200180611e96602391396040019250505060405180910390a160008273ffffffffffffffffffffffffffffffffffffffff1663ae9d70b06040518163ffffffff1660e01b8152600401602060405180830381600087803b15801561185057600080fd5b505af1158015611864573d6000803e3d6000fd5b505050506040513d602081101561187a57600080fd5b810190808051906020019092919050505090507f8d1cced004452bd270777a8c670f9f7e7c4fdde56f2db331fe289d39dc2624ad816040518080602001838152602001828103825260208152602001807f537570706c7920526174653a20287363616c65642075702062792031653138298152506020019250505060405180910390a18273ffffffffffffffffffffffffffffffffffffffff16631249c58b3463017d7840906040518363ffffffff1660e01b81526004016000604051808303818589803b15801561194b57600080fd5b5088f115801561195f573d6000803e3d6000fd5b50505050505060019350505050919050565b60066020528060005260406000206000915090505481565b6000809054906101000a900473ffffffffffffffffffffffffffffffffffffffff1673ffffffffffffffffffffffffffffffffffffffff163373ffffffffffffffffffffffffffffffffffffffff1614611a4b576040517f08c379a000000000000000000000000000000000000000000000000000000000815260040180806020018281038252600e8152602001807f4d7573742062652061646d696e2100000000000000000000000000000000000081525060200191505060405180910390fd5b3373ffffffffffffffffffffffffffffffffffffffff166108fc829081150290604051600060405180830381858888f19350505050158015611a91573d6000803e3d6000fd5b5050565b34600460003373ffffffffffffffffffffffffffffffffffffffff1673ffffffffffffffffffffffffffffffffffffffff168152602001908152602001600020600082825401925050819055503460016000828254019250508190555034600660003373ffffffffffffffffffffffffffffffffffffffff1673ffffffffffffffffffffffffffffffffffffffff16815260200190815260200160002060008282540192505081905550611b4881611726565b507fafa91cc6e54baca31bd478a68e8a24969db1efeb7d75c196b113a48db872b6b4346040518082815260200191505060405180910390a150565b600360009054906101000a900473ffffffffffffffffffffffffffffffffffffffff1681565b60078181548110611bb657fe5b9060005260206000209060040201600091509050806000015490806001018054600181600116156101000203166002900480601f016020809104026020016040519081016040528092919081815260200182805460018160011615610100020316600290048015611c685780601f10611c3d57610100808354040283529160200191611c68565b820191906000526020600020905b815481529060010190602001808311611c4b57829003601f168201915b5050505050908060020160009054906101000a900473ffffffffffffffffffffffffffffffffffffffff16908060030154905084565b60046020528060005260406000206000915090505481565b60008082905060008173ffffffffffffffffffffffffffffffffffffffff16633af9e669306040518263ffffffff1660e01b8152600401808273ffffffffffffffffffffffffffffffffffffffff1673ffffffffffffffffffffffffffffffffffffffff168152602001915050602060405180830381600087803b158015611d3d57600080fd5b505af1158015611d51573d6000803e3d6000fd5b505050506040513d6020811015611d6757600080fd5b81019080805190602001909291905050509050600060015482039050809350505050919050565b60405180608001604052806000815260200160608152602001600073ffffffffffffffffffffffffffffffffffffffff168152602001600081525090565b828054600181600116156101000203166002900490600052602060002090601f016020900481019282601f10611e0d57805160ff1916838001178555611e3b565b82800160010185558215611e3b579182015b82811115611e3a578251825591602001919060010190611e1f565b5b509050611e489190611e4c565b5090565b611e6e91905b80821115611e6a576000816000905550600101611e52565b5090565b9056fe49662074686973206973206e6f7420302c2074686572652077617320616e206572726f7245786368616e6765205261746520287363616c65642075702062792031653138293a206e6f7420656e6f756768206465706f736974656420746f2072656d6f766520766f746573216e6f7420656e6f75676820766f74657320696e2074686973206368617269747920746f2072656d6f7665216e6f7420656e6f75676820766f74696e6720706f77657220746f207769746864726177207468617420616d6f756e7421a265627a7a7231582008c9d861266d9cae4e65beacd71a628ee2ee702634f35351213857819eb61ec664736f6c634300050c0032",
  "source": "pragma solidity ^0.5.12;\r\n\r\nimport './CompoundWallet.sol';\r\n\r\ncontract CharityPool is CompoundWallet {\r\n    \r\n    uint public ethDeposited = 0;\r\n    uint public nextId = 0;\r\n    address public admin;\r\n    mapping(address => uint) public deposits;\r\n    mapping(address => mapping(uint => uint)) public votes;\r\n    mapping(address => uint) public votingPower;\r\n    Charity[] public charities;\r\n    \r\n    event deposited(uint depositAmount);\r\n    event withdrawed(uint withdrawAmount);\r\n    event addedVotes(uint id, uint voteAmount);\r\n    event removedVotes(uint id, uint voteAmount);\r\n    event wonPrize(uint timestamp, uint id, string name, uint prize, uint votes);\r\n\r\n    constructor() public {\r\n        admin = msg.sender;\r\n        deposits[msg.sender] = 0;\r\n    }\r\n\r\n    struct Charity {\r\n        uint id;\r\n        string name;\r\n        address payable targetAddress;\r\n        uint votes;\r\n    }\r\n \r\n    \r\n     /// @dev Deposit into a pool\r\n     /// @param _compoundAddress the compound address to deposit into\r\n    function deposit(address payable _compoundAddress) public payable {\r\n        deposits[msg.sender] += msg.value;\r\n        ethDeposited += msg.value;\r\n        votingPower[msg.sender] += msg.value;\r\n        supplyEthToCompound(_compoundAddress);\r\n        emit deposited(msg.value);\r\n    }\r\n    \r\n    /// @dev Withdraw from a pool\r\n    /// @param _amount the amount of Wei to withdraw\r\n    /// @param _compoundAddress the compound address to withdraw from\r\n    function withdraw(uint _amount, address _compoundAddress) public {\r\n        require(deposits[msg.sender] >= _amount, 'not enough deposited!');\r\n        require(votingPower[msg.sender] >= _amount, 'not enough voting power to withdraw that amount!');\r\n        redeemcETHTokens(_amount, false, _compoundAddress);\r\n        address(msg.sender).transfer(_amount);\r\n        deposits[msg.sender] -= _amount;\r\n        ethDeposited -= _amount;\r\n        votingPower[msg.sender] -= _amount;\r\n        emit withdrawed(_amount);\r\n    }\r\n    \r\n\r\n    /// @dev Releases the interest  after the timeperiod\r\n    /// @param _compoundAddress the compound address\r\n    function releasePrizeTarget(address _compoundAddress) public onlyAdmin() {\r\n        Charity memory mostVotes = charities[0];\r\n        uint charityLength = charities.length;\r\n\r\n        for (uint i=1; i<charityLength; i++) {\r\n            if(charities[i].votes > mostVotes.votes) {\r\n                mostVotes = charities[i];\r\n            }\r\n        }\r\n        address payable _target = mostVotes.targetAddress;\r\n        uint prize = calculateInterest(_compoundAddress);\r\n        redeemcETHTokens(prize, false, _compoundAddress);\r\n        //Release interest to target address\r\n        address(_target).transfer(prize);\r\n        emit wonPrize(block.timestamp, mostVotes.id, mostVotes.name, prize, mostVotes.votes);\r\n    }\r\n\r\n\r\n    /// @dev Calculates the interest accured for Pool\r\n    function calculateInterest(address _compoundAddress) internal returns (uint) {\r\n        cETH cToken = cETH(_compoundAddress);\r\n        //1. Retrieve how much total ETH Underlying in Contract\r\n        uint contractEthUnderlying = cToken.balanceOfUnderlying(address(this));\r\n        //2. Calculate the total interest to be paid out for contract\r\n        uint totalInterest = contractEthUnderlying - ethDeposited;\r\n        return totalInterest;\r\n    }\r\n\r\n    /// @dev Creates a charity address\r\n    /// @param _name the name of the charity\r\n    /// @param _targetAddress the target address of the charity\r\n    function createCharity(string memory _name, address payable _targetAddress) public onlyAdmin() {\r\n        charities.push(Charity(nextId, _name, _targetAddress, 0));\r\n        nextId++;\r\n    }\r\n\r\n    /// @dev Adds votes to a charity\r\n    /// @param _id the id of the charity\r\n    /// @param _voteAmount the amount of votes to add\r\n    function addVotes(uint _id, uint _voteAmount) public {\r\n        require(votingPower[msg.sender] >= _voteAmount, 'must have enough voting power!');\r\n        require(_voteAmount > 0, 'cannot vote negative!');\r\n        votes[msg.sender][_id] += _voteAmount;\r\n        votingPower[msg.sender] -= _voteAmount;\r\n        charities[_id].votes += _voteAmount;\r\n        emit addedVotes(_id, _voteAmount);\r\n    }\r\n\r\n    /// @dev Removes votes from a charity    \r\n    /// @param _id the id of the charity\r\n    /// @param _voteAmount the amount of votes to remove\r\n    function removeVotes(uint _id, uint _voteAmount) public {\r\n        require(deposits[msg.sender] >= _voteAmount, 'not enough deposited to remove votes!');\r\n        require(votes[msg.sender][_id] >= _voteAmount, 'not enough votes in this charity to remove!');\r\n        require(_voteAmount > 0, 'cannot vote negative!');\r\n        votes[msg.sender][_id] -= _voteAmount;\r\n        votingPower[msg.sender] += _voteAmount;\r\n        charities[_id].votes -= _voteAmount;\r\n        emit removedVotes(_id, _voteAmount);\r\n    }\r\n\r\n\r\n    /// @dev Can only be admin for pool modifier\r\n    modifier onlyPoolAdmin() {\r\n        require(msg.sender == admin, 'Must be te admin for this pool!');\r\n        _;\r\n    }\r\n\r\n\r\n    \r\n    \r\n}",
  "sourcePath": "C:/Users/jarha/Desktop/FriendsPoolTogether/contracts/CharityPool.sol",
  "compiler": {
    "name": "solc",
    "version": "0.5.12+commit.7709ece9.Emscripten.clang"
  },
  "schemaVersion": "3.0.20",
  "updatedAt": "2021-04-07T00:39:58.667Z",
  "networkType": "ethereum",
  "devdoc": {
    "methods": {
      "addVotes(uint256,uint256)": {
        "details": "Adds votes to a charity",
        "params": {
          "_id": "the id of the charity",
          "_voteAmount": "the amount of votes to add"
        }
      },
      "createCharity(string,address)": {
        "details": "Creates a charity address",
        "params": {
          "_name": "the name of the charity",
          "_targetAddress": "the target address of the charity"
        }
      },
      "deposit(address)": {
        "details": "Deposit into a pool",
        "params": {
          "_compoundAddress": "the compound address to deposit into"
        }
      },
      "releasePrizeTarget(address)": {
        "details": "Releases the interest  after the timeperiod",
        "params": {
          "_compoundAddress": "the compound address"
        }
      },
      "removeVotes(uint256,uint256)": {
        "details": "Removes votes from a charity    ",
        "params": {
          "_id": "the id of the charity",
          "_voteAmount": "the amount of votes to remove"
        }
      },
      "withdraw(uint256,address)": {
        "details": "Withdraw from a pool",
        "params": {
          "_amount": "the amount of Wei to withdraw",
          "_compoundAddress": "the compound address to withdraw from"
        }
      }
    }
  },
  "userdoc": {
    "methods": {}
  }
}