{
  "contractName": "CharityPool",
  "abi": [
    {
      "inputs": [],
      "payable": false,
      "stateMutability": "nonpayable",
      "type": "constructor"
    },
    {
      "anonymous": false,
      "inputs": [
        {
          "indexed": false,
          "internalType": "string",
          "name": "",
          "type": "string"
        },
        {
          "indexed": false,
          "internalType": "uint256",
          "name": "",
          "type": "uint256"
        }
      ],
      "name": "MyLog",
      "type": "event"
    },
    {
      "anonymous": false,
      "inputs": [
        {
          "indexed": false,
          "internalType": "uint256",
          "name": "depositAmount",
          "type": "uint256"
        }
      ],
      "name": "deposited",
      "type": "event"
    },
    {
      "anonymous": false,
      "inputs": [
        {
          "indexed": false,
          "internalType": "address",
          "name": "member",
          "type": "address"
        }
      ],
      "name": "unWhitelistedEvent",
      "type": "event"
    },
    {
      "anonymous": false,
      "inputs": [
        {
          "indexed": false,
          "internalType": "address",
          "name": "member",
          "type": "address"
        }
      ],
      "name": "whitelistedEvent",
      "type": "event"
    },
    {
      "anonymous": false,
      "inputs": [
        {
          "indexed": false,
          "internalType": "uint256",
          "name": "withdrawAmount",
          "type": "uint256"
        }
      ],
      "name": "withdrawed",
      "type": "event"
    },
    {
      "payable": true,
      "stateMutability": "payable",
      "type": "fallback"
    },
    {
      "constant": true,
      "inputs": [],
      "name": "admin",
      "outputs": [
        {
          "internalType": "address",
          "name": "",
          "type": "address"
        }
      ],
      "payable": false,
      "stateMutability": "view",
      "type": "function"
    },
    {
      "constant": true,
      "inputs": [
        {
          "internalType": "address",
          "name": "",
          "type": "address"
        }
      ],
      "name": "deposits",
      "outputs": [
        {
          "internalType": "uint256",
          "name": "",
          "type": "uint256"
        }
      ],
      "payable": false,
      "stateMutability": "view",
      "type": "function"
    },
    {
      "constant": true,
      "inputs": [],
      "name": "ethDeposited",
      "outputs": [
        {
          "internalType": "uint256",
          "name": "",
          "type": "uint256"
        }
      ],
      "payable": false,
      "stateMutability": "view",
      "type": "function"
    },
    {
      "constant": true,
      "inputs": [
        {
          "internalType": "address",
          "name": "",
          "type": "address"
        }
      ],
      "name": "poolsWhitelist",
      "outputs": [
        {
          "internalType": "bool",
          "name": "",
          "type": "bool"
        }
      ],
      "payable": false,
      "stateMutability": "view",
      "type": "function"
    },
    {
      "constant": false,
      "inputs": [
        {
          "internalType": "uint256",
          "name": "amount",
          "type": "uint256"
        },
        {
          "internalType": "bool",
          "name": "redeemType",
          "type": "bool"
        },
        {
          "internalType": "address",
          "name": "_cETHContract",
          "type": "address"
        }
      ],
      "name": "redeemcETHTokens",
      "outputs": [
        {
          "internalType": "bool",
          "name": "",
          "type": "bool"
        }
      ],
      "payable": false,
      "stateMutability": "nonpayable",
      "type": "function"
    },
    {
      "constant": false,
      "inputs": [
        {
          "internalType": "address payable",
          "name": "_cEtherContract",
          "type": "address"
        }
      ],
      "name": "supplyEthToCompound",
      "outputs": [
        {
          "internalType": "bool",
          "name": "",
          "type": "bool"
        }
      ],
      "payable": true,
      "stateMutability": "payable",
      "type": "function"
    },
    {
      "constant": false,
      "inputs": [
        {
          "internalType": "uint256",
          "name": "amount",
          "type": "uint256"
        }
      ],
      "name": "withdrawETH",
      "outputs": [],
      "payable": false,
      "stateMutability": "nonpayable",
      "type": "function"
    },
    {
      "constant": false,
      "inputs": [
        {
          "internalType": "address",
          "name": "_memberTarget",
          "type": "address"
        }
      ],
      "name": "whitelist",
      "outputs": [],
      "payable": false,
      "stateMutability": "nonpayable",
      "type": "function"
    },
    {
      "constant": false,
      "inputs": [
        {
          "internalType": "address",
          "name": "_memberTarget",
          "type": "address"
        }
      ],
      "name": "unwhitelist",
      "outputs": [],
      "payable": false,
      "stateMutability": "nonpayable",
      "type": "function"
    },
    {
      "constant": false,
      "inputs": [
        {
          "internalType": "address payable",
          "name": "_compoundAddress",
          "type": "address"
        }
      ],
      "name": "deposit",
      "outputs": [],
      "payable": true,
      "stateMutability": "payable",
      "type": "function"
    },
    {
      "constant": false,
      "inputs": [
        {
          "internalType": "uint256",
          "name": "_amount",
          "type": "uint256"
        },
        {
          "internalType": "address",
          "name": "_compoundAddress",
          "type": "address"
        }
      ],
      "name": "withdraw",
      "outputs": [],
      "payable": false,
      "stateMutability": "nonpayable",
      "type": "function"
    },
    {
      "constant": false,
      "inputs": [
        {
          "internalType": "address payable",
          "name": "_target",
          "type": "address"
        },
        {
          "internalType": "address",
          "name": "_compoundAddress",
          "type": "address"
        }
      ],
      "name": "releasePrizeTarget",
      "outputs": [],
      "payable": false,
      "stateMutability": "nonpayable",
      "type": "function"
    }
  ],
  "bytecode": "0x6080604052600060015534801561001557600080fd5b50336000806101000a81548173ffffffffffffffffffffffffffffffffffffffff021916908373ffffffffffffffffffffffffffffffffffffffff16021790555033600260006101000a81548173ffffffffffffffffffffffffffffffffffffffff021916908373ffffffffffffffffffffffffffffffffffffffff16021790555061134f806100a66000396000f3fe6080604052600436106100a65760003560e01c8063d3c9244911610064578063d3c92449146102ab578063e868730b14610314578063f14210a614610385578063f340fa01146103c0578063f851a44014610404578063fc7e286d1461045b576100a6565b8062f714ce146100a857806355a08b2014610103578063677c0f121461012e5780639a590427146101ad5780639b19251a146101fe578063a82ffd881461024f575b005b3480156100b457600080fd5b50610101600480360360408110156100cb57600080fd5b8101908080359060200190929190803573ffffffffffffffffffffffffffffffffffffffff1690602001909291905050506104c0565b005b34801561010f57600080fd5b50610118610727565b6040518082815260200191505060405180910390f35b34801561013a57600080fd5b506101936004803603606081101561015157600080fd5b8101908080359060200190929190803515159060200190929190803573ffffffffffffffffffffffffffffffffffffffff16906020019092919050505061072d565b604051808215151515815260200191505060405180910390f35b3480156101b957600080fd5b506101fc600480360360208110156101d057600080fd5b81019080803573ffffffffffffffffffffffffffffffffffffffff1690602001909291905050506108c8565b005b34801561020a57600080fd5b5061024d6004803603602081101561022157600080fd5b81019080803573ffffffffffffffffffffffffffffffffffffffff169060200190929190505050610a49565b005b6102916004803603602081101561026557600080fd5b81019080803573ffffffffffffffffffffffffffffffffffffffff169060200190929190505050610bca565b604051808215151515815260200191505060405180910390f35b3480156102b757600080fd5b506102fa600480360360208110156102ce57600080fd5b81019080803573ffffffffffffffffffffffffffffffffffffffff169060200190929190505050610e15565b604051808215151515815260200191505060405180910390f35b34801561032057600080fd5b506103836004803603604081101561033757600080fd5b81019080803573ffffffffffffffffffffffffffffffffffffffff169060200190929190803573ffffffffffffffffffffffffffffffffffffffff169060200190929190505050610e35565b005b34801561039157600080fd5b506103be600480360360208110156103a857600080fd5b8101908080359060200190929190505050610f4a565b005b610402600480360360208110156103d657600080fd5b81019080803573ffffffffffffffffffffffffffffffffffffffff169060200190929190505050611056565b005b34801561041057600080fd5b506104196111bd565b604051808273ffffffffffffffffffffffffffffffffffffffff1673ffffffffffffffffffffffffffffffffffffffff16815260200191505060405180910390f35b34801561046757600080fd5b506104aa6004803603602081101561047e57600080fd5b81019080803573ffffffffffffffffffffffffffffffffffffffff1690602001909291905050506111e3565b6040518082815260200191505060405180910390f35b60011515600460003373ffffffffffffffffffffffffffffffffffffffff1673ffffffffffffffffffffffffffffffffffffffff16815260200190815260200160002060009054906101000a900460ff16151514610586576040517f08c379a00000000000000000000000000000000000000000000000000000000081526004018080602001828103825260118152602001807f4d7573742062652061206d656d6265722100000000000000000000000000000081525060200191505060405180910390fd5b81600360003373ffffffffffffffffffffffffffffffffffffffff1673ffffffffffffffffffffffffffffffffffffffff16815260200190815260200160002054101561063b576040517f08c379a00000000000000000000000000000000000000000000000000000000081526004018080602001828103825260158152602001807f6e6f7420656e6f756768206465706f736974656421000000000000000000000081525060200191505060405180910390fd5b6106478260008361072d565b503373ffffffffffffffffffffffffffffffffffffffff166108fc839081150290604051600060405180830381858888f1935050505015801561068e573d6000803e3d6000fd5b5081600360003373ffffffffffffffffffffffffffffffffffffffff1673ffffffffffffffffffffffffffffffffffffffff16815260200190815260200160002060008282540392505081905550816001600082825403925050819055507ff3aa1193b6da5e1821bfbe001615a1be02c7c5f3c5c4a8e8c5a9b9ed32cc04a2826040518082815260200191505060405180910390a15050565b60015481565b60008082905060006001151585151514156107d7578173ffffffffffffffffffffffffffffffffffffffff1663db006a75876040518263ffffffff1660e01b815260040180828152602001915050602060405180830381600087803b15801561079557600080fd5b505af11580156107a9573d6000803e3d6000fd5b505050506040513d60208110156107bf57600080fd5b81019080805190602001909291905050509050610868565b8173ffffffffffffffffffffffffffffffffffffffff1663852a12e3876040518263ffffffff1660e01b815260040180828152602001915050602060405180830381600087803b15801561082a57600080fd5b505af115801561083e573d6000803e3d6000fd5b505050506040513d602081101561085457600080fd5b810190808051906020019092919050505090505b7f8d1cced004452bd270777a8c670f9f7e7c4fdde56f2db331fe289d39dc2624ad816040518080602001838152602001828103825260248152602001806112d4602491396040019250505060405180910390a16001925050509392505050565b600260009054906101000a900473ffffffffffffffffffffffffffffffffffffffff1673ffffffffffffffffffffffffffffffffffffffff163373ffffffffffffffffffffffffffffffffffffffff161461098b576040517f08c379a000000000000000000000000000000000000000000000000000000000815260040180806020018281038252601f8152602001807f4d7573742062652074652061646d696e20666f72207468697320706f6f6c210081525060200191505060405180910390fd5b6000600460008373ffffffffffffffffffffffffffffffffffffffff1673ffffffffffffffffffffffffffffffffffffffff16815260200190815260200160002060006101000a81548160ff0219169083151502179055507fa68dfdb8e7ccf70b4d4ddbc1ee7eab821fd237e59adf56c7d31f29d2558f694c81604051808273ffffffffffffffffffffffffffffffffffffffff1673ffffffffffffffffffffffffffffffffffffffff16815260200191505060405180910390a150565b600260009054906101000a900473ffffffffffffffffffffffffffffffffffffffff1673ffffffffffffffffffffffffffffffffffffffff163373ffffffffffffffffffffffffffffffffffffffff1614610b0c576040517f08c379a000000000000000000000000000000000000000000000000000000000815260040180806020018281038252601f8152602001807f4d7573742062652074652061646d696e20666f72207468697320706f6f6c210081525060200191505060405180910390fd5b6001600460008373ffffffffffffffffffffffffffffffffffffffff1673ffffffffffffffffffffffffffffffffffffffff16815260200190815260200160002060006101000a81548160ff0219169083151502179055507fff64c99af1e7eca3334f8deb6d769251825b0c6fc2b3b258dc349d2a0978ad3681604051808273ffffffffffffffffffffffffffffffffffffffff1673ffffffffffffffffffffffffffffffffffffffff16815260200191505060405180910390a150565b60008082905060008173ffffffffffffffffffffffffffffffffffffffff1663bd6d894d6040518163ffffffff1660e01b8152600401602060405180830381600087803b158015610c1a57600080fd5b505af1158015610c2e573d6000803e3d6000fd5b505050506040513d6020811015610c4457600080fd5b810190808051906020019092919050505090507f8d1cced004452bd270777a8c670f9f7e7c4fdde56f2db331fe289d39dc2624ad816040518080602001838152602001828103825260238152602001806112f8602391396040019250505060405180910390a160008273ffffffffffffffffffffffffffffffffffffffff1663ae9d70b06040518163ffffffff1660e01b8152600401602060405180830381600087803b158015610cf457600080fd5b505af1158015610d08573d6000803e3d6000fd5b505050506040513d6020811015610d1e57600080fd5b810190808051906020019092919050505090507f8d1cced004452bd270777a8c670f9f7e7c4fdde56f2db331fe289d39dc2624ad816040518080602001838152602001828103825260208152602001807f537570706c7920526174653a20287363616c65642075702062792031653138298152506020019250505060405180910390a18273ffffffffffffffffffffffffffffffffffffffff16631249c58b3463017d7840906040518363ffffffff1660e01b81526004016000604051808303818589803b158015610def57600080fd5b5088f1158015610e03573d6000803e3d6000fd5b50505050505060019350505050919050565b60046020528060005260406000206000915054906101000a900460ff1681565b6000809054906101000a900473ffffffffffffffffffffffffffffffffffffffff1673ffffffffffffffffffffffffffffffffffffffff163373ffffffffffffffffffffffffffffffffffffffff1614610ef7576040517f08c379a000000000000000000000000000000000000000000000000000000000815260040180806020018281038252600e8152602001807f4d7573742062652061646d696e2100000000000000000000000000000000000081525060200191505060405180910390fd5b8173ffffffffffffffffffffffffffffffffffffffff166108fc610f1a836111fb565b9081150290604051600060405180830381858888f19350505050158015610f45573d6000803e3d6000fd5b505050565b6000809054906101000a900473ffffffffffffffffffffffffffffffffffffffff1673ffffffffffffffffffffffffffffffffffffffff163373ffffffffffffffffffffffffffffffffffffffff161461100c576040517f08c379a000000000000000000000000000000000000000000000000000000000815260040180806020018281038252600e8152602001807f4d7573742062652061646d696e2100000000000000000000000000000000000081525060200191505060405180910390fd5b3373ffffffffffffffffffffffffffffffffffffffff166108fc829081150290604051600060405180830381858888f19350505050158015611052573d6000803e3d6000fd5b5050565b60011515600460003373ffffffffffffffffffffffffffffffffffffffff1673ffffffffffffffffffffffffffffffffffffffff16815260200190815260200160002060009054906101000a900460ff1615151461111c576040517f08c379a00000000000000000000000000000000000000000000000000000000081526004018080602001828103825260118152602001807f4d7573742062652061206d656d6265722100000000000000000000000000000081525060200191505060405180910390fd5b34600360003373ffffffffffffffffffffffffffffffffffffffff1673ffffffffffffffffffffffffffffffffffffffff168152602001908152602001600020600082825401925050819055503460016000828254019250508190555061118281610bca565b507fafa91cc6e54baca31bd478a68e8a24969db1efeb7d75c196b113a48db872b6b4346040518082815260200191505060405180910390a150565b600260009054906101000a900473ffffffffffffffffffffffffffffffffffffffff1681565b60036020528060005260406000206000915090505481565b60008082905060008173ffffffffffffffffffffffffffffffffffffffff16633af9e669306040518263ffffffff1660e01b8152600401808273ffffffffffffffffffffffffffffffffffffffff1673ffffffffffffffffffffffffffffffffffffffff168152602001915050602060405180830381600087803b15801561128257600080fd5b505af1158015611296573d6000803e3d6000fd5b505050506040513d60208110156112ac57600080fd5b8101908080519060200190929190505050905060006001548203905080935050505091905056fe49662074686973206973206e6f7420302c2074686572652077617320616e206572726f7245786368616e6765205261746520287363616c65642075702062792031653138293a20a265627a7a72315820c5f098f355f60c653e839b212e52677c31cab1314c7d91b6944a36af905b81bc64736f6c634300050c0032",
  "source": "pragma solidity ^0.5.12;\r\n\r\nimport './CompoundWallet.sol';\r\n\r\ncontract CharityPool is CompoundWallet {\r\n    \r\n    uint public ethDeposited = 0;\r\n    address public admin;\r\n    mapping(address => uint) public deposits;\r\n    mapping(address => bool) public poolsWhitelist;\r\n    \r\n    event whitelistedEvent(address member);\r\n    event unWhitelistedEvent(address member);\r\n    event deposited(uint depositAmount);\r\n    event withdrawed(uint withdrawAmount);\r\n\r\n    constructor() public {\r\n        admin = msg.sender;\r\n    }\r\n \r\n    /// @dev Whitelist member for a pool\r\n    /// @param _memberTarget the address of the member to add to whitelist\r\n    function whitelist(address _memberTarget) public onlyPoolAdmin() {\r\n        poolsWhitelist[_memberTarget] = true;\r\n        emit whitelistedEvent(_memberTarget);\r\n    }\r\n    \r\n    /// @dev Unwhitelist member for a pool\r\n    /// @param _memberTarget the address of the member to remove from whitelist\r\n    function unwhitelist(address _memberTarget) public onlyPoolAdmin() {\r\n        poolsWhitelist[_memberTarget] = false;\r\n        emit unWhitelistedEvent(_memberTarget);\r\n    }\r\n    \r\n     /// @dev Deposit into a pool\r\n     /// @param _compoundAddress the compound address to deposit into\r\n    function deposit(address payable _compoundAddress) public payable onlyMember() {\r\n        deposits[msg.sender] += msg.value;\r\n        ethDeposited += msg.value;\r\n        supplyEthToCompound(_compoundAddress);\r\n        emit deposited(msg.value);\r\n    }\r\n    \r\n    /// @dev Withdraw from a pool\r\n    /// @param _amount the amount of Wei to withdraw\r\n    /// @param _compoundAddress the compound address to withdraw from\r\n    function withdraw(uint _amount, address _compoundAddress) public onlyMember() {\r\n        require(deposits[msg.sender] >= _amount, 'not enough deposited!');\r\n        redeemcETHTokens(_amount, false, _compoundAddress);\r\n        address(msg.sender).transfer(_amount);\r\n        deposits[msg.sender] -= _amount;\r\n        ethDeposited -= _amount;\r\n        emit withdrawed(_amount);\r\n    }\r\n    \r\n\r\n    /// @dev Releases the interest  after the timeperiod\r\n    /// @param _target the target address to release the prize\r\n    function releasePrizeTarget(address payable _target, address _compoundAddress) public onlyAdmin() {\r\n        //Release interest to target address\r\n        address(_target).transfer(calculateInterest(_compoundAddress));\r\n    }\r\n\r\n\r\n    /// @dev Calculates the interest accured for Pool\r\n    function calculateInterest(address _compoundAddress) internal returns (uint) {\r\n        cETH cToken = cETH(_compoundAddress);\r\n        //1. Retrieve how much total ETH Underlying in Contract\r\n        uint contractEthUnderlying = cToken.balanceOfUnderlying(address(this));\r\n        //2. Calculate the total interest to be paid out for contract\r\n        uint totalInterest = contractEthUnderlying - ethDeposited;\r\n        return totalInterest;\r\n    }\r\n    \r\n\r\n    /// @dev Can only be admin for pool modifier\r\n    modifier onlyPoolAdmin() {\r\n        require(msg.sender == admin, 'Must be te admin for this pool!');\r\n        _;\r\n    }\r\n\r\n    /// @dev Can only be members in pool modifier\r\n    modifier onlyMember() {\r\n        require(poolsWhitelist[msg.sender] == true, 'Must be a member!');\r\n        _;\r\n    }\r\n    \r\n    \r\n}",
  "sourcePath": "C:/Users/jarha/Desktop/FriendsPoolTogether/contracts/CharityPool.sol",
  "compiler": {
    "name": "solc",
    "version": "0.5.12+commit.7709ece9.Emscripten.clang"
  },
  "schemaVersion": "3.0.20",
  "updatedAt": "2021-03-19T02:10:45.510Z",
  "devdoc": {
    "methods": {
      "deposit(address)": {
        "details": "Deposit into a pool",
        "params": {
          "_compoundAddress": "the compound address to deposit into"
        }
      },
      "releasePrizeTarget(address,address)": {
        "details": "Releases the interest  after the timeperiod",
        "params": {
          "_target": "the target address to release the prize"
        }
      },
      "unwhitelist(address)": {
        "details": "Unwhitelist member for a pool",
        "params": {
          "_memberTarget": "the address of the member to remove from whitelist"
        }
      },
      "whitelist(address)": {
        "details": "Whitelist member for a pool",
        "params": {
          "_memberTarget": "the address of the member to add to whitelist"
        }
      },
      "withdraw(uint256,address)": {
        "details": "Withdraw from a pool",
        "params": {
          "_amount": "the amount of Wei to withdraw",
          "_compoundAddress": "the compound address to withdraw from"
        }
      }
    }
  },
  "userdoc": {
    "methods": {}
  }
}