{
  "contractName": "FriendsPoolTogether",
  "abi": [
    {
      "anonymous": false,
      "inputs": [
        {
          "indexed": false,
          "internalType": "uint256",
          "name": "id",
          "type": "uint256"
        },
        {
          "indexed": false,
          "internalType": "address",
          "name": "admin",
          "type": "address"
        }
      ],
      "name": "PoolCreated",
      "type": "event"
    },
    {
      "anonymous": false,
      "inputs": [
        {
          "indexed": false,
          "internalType": "uint256",
          "name": "_id",
          "type": "uint256"
        },
        {
          "indexed": false,
          "internalType": "address",
          "name": "member",
          "type": "address"
        }
      ],
      "name": "WhiteListed",
      "type": "event"
    },
    {
      "anonymous": false,
      "inputs": [
        {
          "indexed": false,
          "internalType": "uint256",
          "name": "_id",
          "type": "uint256"
        },
        {
          "indexed": false,
          "internalType": "uint256",
          "name": "depositAmount",
          "type": "uint256"
        }
      ],
      "name": "deposited",
      "type": "event"
    },
    {
      "anonymous": false,
      "inputs": [
        {
          "indexed": false,
          "internalType": "uint256",
          "name": "_id",
          "type": "uint256"
        },
        {
          "indexed": false,
          "internalType": "uint256",
          "name": "withdrawAmount",
          "type": "uint256"
        }
      ],
      "name": "withdrawed",
      "type": "event"
    },
    {
      "inputs": [],
      "name": "admin",
      "outputs": [
        {
          "internalType": "address",
          "name": "",
          "type": "address"
        }
      ],
      "stateMutability": "view",
      "type": "function"
    },
    {
      "inputs": [
        {
          "internalType": "address",
          "name": "",
          "type": "address"
        },
        {
          "internalType": "uint256",
          "name": "",
          "type": "uint256"
        }
      ],
      "name": "deposits",
      "outputs": [
        {
          "internalType": "uint256",
          "name": "",
          "type": "uint256"
        }
      ],
      "stateMutability": "view",
      "type": "function"
    },
    {
      "inputs": [],
      "name": "nextId",
      "outputs": [
        {
          "internalType": "uint256",
          "name": "",
          "type": "uint256"
        }
      ],
      "stateMutability": "view",
      "type": "function"
    },
    {
      "inputs": [
        {
          "internalType": "uint256",
          "name": "",
          "type": "uint256"
        }
      ],
      "name": "pools",
      "outputs": [
        {
          "internalType": "uint256",
          "name": "poolID",
          "type": "uint256"
        },
        {
          "internalType": "address",
          "name": "admin",
          "type": "address"
        },
        {
          "internalType": "uint256",
          "name": "tickets",
          "type": "uint256"
        }
      ],
      "stateMutability": "view",
      "type": "function"
    },
    {
      "inputs": [
        {
          "internalType": "address",
          "name": "",
          "type": "address"
        },
        {
          "internalType": "uint256",
          "name": "",
          "type": "uint256"
        }
      ],
      "name": "whitelisted",
      "outputs": [
        {
          "internalType": "bool",
          "name": "",
          "type": "bool"
        }
      ],
      "stateMutability": "view",
      "type": "function"
    },
    {
      "inputs": [],
      "name": "createPool",
      "outputs": [],
      "stateMutability": "nonpayable",
      "type": "function"
    },
    {
      "inputs": [
        {
          "internalType": "uint256",
          "name": "_id",
          "type": "uint256"
        },
        {
          "internalType": "address",
          "name": "memberTarget",
          "type": "address"
        }
      ],
      "name": "whitelist",
      "outputs": [],
      "stateMutability": "nonpayable",
      "type": "function"
    },
    {
      "inputs": [],
      "name": "deposit",
      "outputs": [],
      "stateMutability": "nonpayable",
      "type": "function"
    },
    {
      "inputs": [],
      "name": "withdraw",
      "outputs": [],
      "stateMutability": "nonpayable",
      "type": "function"
    }
  ],
  "bytecode": "0x60806040526000805534801561001457600080fd5b50610514806100246000396000f3fe608060405234801561001057600080fd5b50600436106100935760003560e01c80639a06b113116100665780639a06b11314610174578063ac4afa381461017e578063d0e30db0146101fa578063d6d6817714610204578063f851a4401461026657610093565b80633ccfd60b146100985780634b25bfce146100a257806361b8ce8c146100f05780636c1cac4a1461010e575b600080fd5b6100a06102b0565b005b6100ee600480360360408110156100b857600080fd5b8101908080359060200190929190803573ffffffffffffffffffffffffffffffffffffffff1690602001909291905050506102c3565b005b6100f8610348565b6040518082815260200191505060405180910390f35b61015a6004803603604081101561012457600080fd5b81019080803573ffffffffffffffffffffffffffffffffffffffff1690602001909291908035906020019092919050505061034e565b604051808215151515815260200191505060405180910390f35b61017c61037d565b005b6101aa6004803603602081101561019457600080fd5b8101908080359060200190929190505050610436565b604051808481526020018373ffffffffffffffffffffffffffffffffffffffff1673ffffffffffffffffffffffffffffffffffffffff168152602001828152602001935050505060405180910390f35b610202610480565b005b6102506004803603604081101561021a57600080fd5b81019080803573ffffffffffffffffffffffffffffffffffffffff16906020019092919080359060200190929190505050610493565b6040518082815260200191505060405180910390f35b61026e6104b8565b604051808273ffffffffffffffffffffffffffffffffffffffff1673ffffffffffffffffffffffffffffffffffffffff16815260200191505060405180910390f35b6000808154809291906001019190505550565b816002600082815260200190815260200160002060010160009054906101000a900473ffffffffffffffffffffffffffffffffffffffff1673ffffffffffffffffffffffffffffffffffffffff163373ffffffffffffffffffffffffffffffffffffffff161461033257600080fd5b6000808154809291906001019190505550505050565b60005481565b60036020528160005260406000206020528060005260406000206000915091509054906101000a900460ff1681565b604051806060016040528060005481526020013373ffffffffffffffffffffffffffffffffffffffff168152602001600081525060026000805481526020019081526020016000206000820151816000015560208201518160010160006101000a81548173ffffffffffffffffffffffffffffffffffffffff021916908373ffffffffffffffffffffffffffffffffffffffff160217905550604082015181600201559050506000808154809291906001019190505550565b60026020528060005260406000206000915090508060000154908060010160009054906101000a900473ffffffffffffffffffffffffffffffffffffffff16908060020154905083565b6000808154809291906001019190505550565b6004602052816000526040600020602052806000526040600020600091509150505481565b600160009054906101000a900473ffffffffffffffffffffffffffffffffffffffff168156fea26469706673582212205240796080bd602303220fd9932b4f3f767623210205c91a0dd0e261e031935164736f6c63430006000033",
  "source": "pragma solidity ^0.6.0;\r\n\r\ncontract FriendsPoolTogether {\r\n    \r\n    uint public nextId = 0;\r\n    address public admin;\r\n    mapping(uint => Pool) public pools;\r\n    mapping(address => mapping(uint => bool)) public whitelisted;\r\n    mapping(address => mapping(uint => uint)) public deposits;\r\n    \r\n    event PoolCreated(uint id, address admin);\r\n    event WhiteListed(uint _id, address member);\r\n    event deposited(uint _id, uint depositAmount);\r\n    event withdrawed(uint _id, uint withdrawAmount);\r\n    \r\n    \r\n    struct Pool {\r\n        uint poolID;\r\n        address admin;\r\n        uint tickets;\r\n    }\r\n    \r\n    \r\n    function createPool() public {\r\n       pools[nextId] = Pool(nextId, msg.sender, 0);\r\n       nextId++;\r\n    }\r\n    \r\n    function whitelist(uint _id, address memberTarget) public onlyAdmin(_id) {\r\n        nextId++;\r\n    }\r\n    \r\n    function deposit() public {\r\n        nextId++;\r\n    }\r\n    \r\n    \r\n    function withdraw() public {\r\n        nextId++;\r\n    }\r\n    \r\n    \r\n    function getRandomNumber() internal {\r\n        nextId++;\r\n    }\r\n    \r\n    \r\n    modifier onlyAdmin(uint _id) {\r\n        require(msg.sender == pools[_id].admin);\r\n        _;\r\n    }\r\n    \r\n    \r\n}",
  "sourcePath": "C:/Users/jarha/Desktop/MiniPoolTogether/contracts/FriendsPoolTogether.sol",
  "compiler": {
    "name": "solc",
    "version": "0.6.0+commit.26b70077.Emscripten.clang"
  },
  "schemaVersion": "3.0.20",
  "updatedAt": "2021-02-06T15:22:26.961Z",
  "devdoc": {
    "methods": {}
  },
  "userdoc": {
    "methods": {}
  }
}